:020000040000FA
:10000000A00400206D0200007102000073020000D5
:100010007502000077020000790200000000000075
:100020000000000000000000000000007B02000053
:100030007D020000000000007F020000810200003D
:10004000830200008302000083020000830200009C
:10005000830200008302000083020000830200008C
:10006000830200008302000083020000830200007C
:10007000830200008302000083020000830200006C
:10008000830200008302000083020000830200005C
:10009000830200008302000083020000830200004C
:1000A000830200008302000083020000830200003C
:1000B000830200008302000083020000830200002C
:1000C000830200008302000083020000830200001C
:1000D000830200008302000083020000830200000C
:1000E00083020000830200008302000083020000FC
:1000F00083020000830200008302000083020000EC
:1001000083020000830200008302000083020000DB
:1001100083020000830200008302000083020000CB
:1001200083020000830200008302000083020000BB
:1001300083020000830200008302000083020000AB
:1001400000000000000000000000000000000000AF
:10015000830200008302000083020000830200008B
:10016000000000000000000000000000000000008F
:10017000000000000000000000000000000000007F
:10018000000000000000000000000000000000006F
:10019000000000000000000000000000000000005F
:1001A000000000000000000000000000000000004F
:1001B000830200008302000083020000830200002B
:1001C000830200008302000083020000830200001B
:1001D000830200008302000083020000830200000B
:1001E00083020000830200008302000083020000FB
:1001F00083020000830200008302000083020000EB
:10020000830200008302000083020000000000005F
:1002100083020000830200008302000083020000CA
:1002200083020000830200008302000083020000BA
:1002300083020000830200008302000083020000AA
:10024000830200008302000083020000830200009A
:10025000830200008302000083020000830200008A
:1002600083020000830200008302000000F00AB84D
:10027000FEE7FEE7FEE7FEE7FEE7FEE7FEE7FEE756
:10028000FEE7FEE700F002F800F082F80AA090E82E
:10029000000C82448344AAF10107DA4501D100F041
:1002A00077F8AFF2090EBAE80F0013F0010F18BF8C
:1002B000FB1A43F001031847782E0000882E000037
:1002C0000023002400250026103A28BF78C1FBD85F
:1002D000520728BF30C148BF0B6070476E2900F03D
:1002E0005B81702900F09D82662902F016866529DF
:1002F00002F01386672902F01086612902F00F864A
:1003000003681B0A28BF41F08001692900F00881B9
:10031000642900F00581752900F002816F2900F041
:100320002B82782900F06982E92900F0C581E4294F
:1003300000F0C281F52900F0BF81EF2900F028828A
:10034000F82900F068820368DB0928BF41F08001CA
:10035000632900F06987732900F06E87E32900F0B4
:100360007987F32900F07E87002070471FB500F0E1
:10037000CFFF04000020002102F06AFA401C6060F8
:100380000020002102F04EFAE0601FBD10B510BD44
:1003900000F090FF1146FFF7E9FF01F043FE01F086
:1003A0006DF803B4FFF7F2FF03BC01F0B3F80000EF
:1003B00072B6704762B67047EFF3108072B670473E
:1003C00080F31088704730BF704702480249014AE5
:1003D000024B7047A0000020A0040020A0000020D5
:1003E0000FB41CB5084B06AA7B44694600900598DB
:1003F00000F0EBF804460020694600F0F9F82046CA
:100400001CBC5DF814FB00000502000040EA01037B
:10041000024630B59B0710D14FF0013400E008C20E
:1004200008C91D1B9D4315EAC41FF8D013F0FF0136
:1004300002F8011B0DD01B0AF8E711F8013B002B55
:1004400002F8013B05D011F8013B002B02F8013BFB
:10045000F3D130BD70477047704770B50446856969
:100460000068C10601D5302600E02026C00707D06D
:1004700070BDD4E9012130469047206A401C2062BB
:100480006D1EF6D570BD70B5044685690078C0074D
:1004900007D170BDD4E9012120209047206A401C7B
:1004A00020626D1EF6D570BD09684A0501D540B2BF
:1004B0007047C905FCD500B2704709684A0501D5E7
:1004C000C0B27047C905FCD580B2704770B50C4604
:1004D0000546012A05D02878800600D5EA69002360
:1004E00002E0012305E05B1C934202D2E05C00289D
:1004F000F9D1A869E618C01AA861286A18442862C8
:100500002846FFF7AAFF04E0D5E9012114F8010B02
:100510009047B442F8D32846FFF7B5FF70BD0000FE
:100520002DE9F0410646002410687529314616A5CC
:1005300010D0FFF7B9FF002802DA404213A507E008
:1005400031688A0701D512A502E0490704D511A533
:10055000012401E0FFF7B1FF00210A2206F1240780
:1005600009E0B0FBF2FCB0FBF2F302FB1C00303000
:1005700078541846491C0028F3D123462A463046B1
:10058000BDE8F04100F061BA000000002D0000005D
:100590002B0000002000000011680268006A53056B
:1005A00001D508700AE0D30501D5088006E01306DE
:1005B00003D5C217C1E9000200E0086001207047BE
:1005C00001694A1C02610878704700B58FB0CDE917
:1005D00001310021059105497944CDE90310114607
:1005E000684600F029F90FB000BD0000E5FFFFFFED
:1005F0000A6802F8010B0A60704700002DE9FF5FEE
:1006000015468A460446DFF8AC80F8440027D8E94E
:1006100000103E46CDE9001010E03AF816106A4688
:1006200002A800F023FE411C07D02178890603D5DB
:10063000E269391891420DD80744761C207880066B
:1006400002D5E069B84205DDAE42E6DB3AF81600B5
:100650000028E2D1A069C01BA0612046FFF7FDFE83
:10066000D8E90010CDE90010002017E03AF8181082
:100670006A4602A800F0FAFDB0F1FF3F81460BD0B8
:1006800000250DF1080B05E0D4E901211BF8050058
:1006900090476D1C4D45F7D308F10100B0428046EC
:1006A000E4DB206A384420622046FFF7ECFEBDE818
:1006B000FF9F0000162900002DE9F0418046D21D61
:1006C00022F007020025D2E90002F52915A614D070
:1006D000011E72F1000106DA0023D0EB030063EB88
:1006E000020211A608E0D8F800108B0701D50FA66A
:1006F00002E0490701D50EA601251146002408F1A4
:10070000240704E000F05CF930323A55641C50EAEA
:100710000102F7D12B46324621464046BDE8F04162
:1007200000F093B9000000002D0000002B00000035
:100730002000000030B4002100F1240408E002F0A1
:100740000705D208303542EA4372DB086554491C7C
:1007500052EA0305F3D10468002310A2250708D547
:1007600004F020040C4304D0C46901230CA2641ECD
:10077000C46130BC00F069B910B504462146106868
:10078000FFF79BFE02462046BDE810400023D1E75C
:10079000D21D22F00701D1E90023CBE700000000C1
:1007A00030000000F0B40D460188090502D5214C47
:1007B0007C4402E01F4C7C440E34002100F12406EE
:1007C00008E002F00F071209E75D42EA03721B0915
:1007D0007754491C52EA0307F3D102780023120729
:1007E00004D5702D06D009B1022311342246F0BC85
:1007F00000F02BB901231034F8E770B504460D461C
:1008000021461068FFF759FE024629462046BDE8FA
:1008100070400023C6E7D21D22F00703D3E900236E
:10082000C0E70368126843F0200303600823C36134
:100830000023B7E7782700002DE9F05F89460446DA
:100840004FF0000ADFF874B1FB44C0F820A0204646
:10085000E1688847002874D0252806D0D4E9012112
:100860009047206A401C2062F1E700265F46204640
:10087000E16888472028054607DB312D05D2781925
:1008800010F8200C08B10643F1E7B00701D526F0B7
:100890000406C4F81CA00027C4F818A02A2D09D00B
:1008A000284601F0B7FF38B304EB8708303DC8F89D
:1008B000185019E059F8041B204604EB8702916197
:1008C000E1688847012F054618D1E069002820DA41
:1008D00026F020061DE0D8F8180000EB800005EB9C
:1008E00040003038C8F818002046E16888470546BF
:1008F00001F090FF0028EED1012F0AD02E2D08D153
:100900002046E16888477F1C0546022F46F02006F6
:10091000C4DBA069002803DA404246F00106A0616A
:10092000F00701D026F010066C2D0BD0682D09D0F1
:100930004C2D39D06A2D35D0742D35D07A2D33D049
:1009400016E038E0E1682F4620468847B842054661
:1009500009D16C2F26D04FF48060E1680643204611
:100960008847054604E06C2F1AD04FF48070064388
:100970000DB3A5F14100192802D8203546F40066D0
:100980004A462946204626604E46FFF7A7FC80B11E
:1009900001280BD0F61D26F0070000F1080956E7E4
:1009A0004020E4E78020D8E70020D6E706F10409DC
:1009B0004DE7284652E7206ABDE8F09F082700006F
:1009C00030B5B0F10A0271F100034FEA900E4EEA21
:1009D000817EB0EB0E0061EB91014FEA101E4EEAF2
:1009E000017E10EB0E0041EB11114FEA102E4EEA82
:1009F000016E10EB0E0041EB11214FEA104E4EEA52
:100A0000014E10EB0E0041EB1141401841F1000185
:100A10004FEAD00040EA41704FEAD1014FEA810429
:100A200044EA907410EB800544EB01046D1944EB2B
:100A30000404521BA3414FF0000348BF0A3200D503
:100A400030BD401C41F1000130BD2DE9F0470D469D
:100A500099469246044600F124080168880604D5A8
:100A6000E06921F01001216000E00120A84201DDD1
:100A7000471B00E00027A1697A1902EB0900081A58
:100A8000A0612078C00602D42046FFF7E6FC0026CD
:100A900008E0D4E901211AF806009047206A401CBA
:100AA000761C20624E45F4DB2078C0060AD520462D
:100AB000FFF7D3FC06E0D4E9012130209047206AFB
:100AC000401C2062381EA7F10107F4DC07E0D4E9DE
:100AD000012118F805009047206A401C2062281E5A
:100AE000A5F10105F3DC2046FFF7CDFC20780006D8
:100AF00002D50220BDE8F0870120FBE72DE9FF4F7A
:100B00000C461E464FF0FF378BB0D2E90001DDF8EE
:100B100060800A908A46C1F30A5505B93D46002116
:100B200008464FF00000BAF1000F00F4400005DA6B
:100B300000EB80004FF4400101EA50004FEA905969
:100B4000B9F1010F00DDB9460A9850EA4A000ED00B
:100B500044F61050A5F2FF3545432F14B8F1000FAD
:100B60001ED07542291E1EDDC9F100021CE0B8F13D
:100B7000010F4FF0000001D0302103E0F24305E007
:100B80002154401CB042FBDB30460022002121549E
:100B90000B99C1F80880C1E900200FB0BDE8F08FC3
:100BA000BD1B6D1CDEE74A4600DA694206A800F06C
:100BB000F3FB06AB93E8070003AB83E8070050465E
:100BC0000A9901F04AFA8DE80700A0F500501F3895
:100BD00000900398002D0ADD42F21F014A460844A6
:100BE000002303A90390684601F0B4FC09E0A0F5D6
:100BF00000504A461F38002303A90390684601F0BD
:100C0000BEFC8DE807000004000C03D04FF0FF305D
:100C1000410800E01046B8F1000F03D00022009216
:100C200015461EE0751E05D4FFF7CAFE3032625528
:100C30006D1EF9D5B3460122084302D000227F1C65
:100C400004E02078302801D100227F1E002A099775
:100C500084D01DE0112D07DAFFF7B2FE3032625565
:100C60006D1C50EA0102F5D1084302D00098C8B1CA
:100C70000EE00021681E05E0235C625C6354225490
:100C8000401E491C8142F7DBAB46A81B401E099061
:100C9000002004F80B000B98099AC0F80880C0E9FE
:100CA000002B7AE711264FF0000857E72DE9F04FA7
:100CB00088460446D21D22F0070191B0D1E9000117
:100CC000CDE90A0101F092FD02460B98C00F01D058
:100CD0002D2007E02068810701D52B2002E020218C
:100CE00001EAC000032A099001D0072A05DB034668
:100CF0004146204600F010FB0BE12078800601D52C
:100D0000E06900E00620B8F1650F814606D0B8F131
:100D1000660F18D0B8F1670F70D131E00020B9F13B
:100D2000110F009001DB112301E009F101030AAA70
:100D300001A90CA8FFF7E2FEDDE90C70002609F11D
:100D40000105834647E001204B4600904FF00047E5
:100D50000AAA01A90CA8FFF7D1FEDDE90DB00C9994
:100D60005D46002610B909F101000D18B9EB050028
:100D700003D4C0F1FF3609F10105A5EB09002BE012
:100D8000B9F1010F01DA4FF001090020B9F1110F9B
:100D90000090484601DD112300E003460AAA01A99C
:100DA0000CA8FFF7ABFEDDE90C704D46002683462C
:100DB000207800070AD4AB4500DA5D4601A8012D72
:100DC00004DD411911F8011C302907D04F4502DA22
:100DD00017F1040F04DA012082460FE06D1EEEE7E2
:100DE000002F02DCED1B3E4403E0781CA84200DD2E
:100DF0007D1CB81B00F1010A4FF000472078000766
:100E000003D4AA4501DB4FF0FF3A0021B7F1004FB0
:100E10000DF143088DF8431024D002202B23002F1E
:100E200001DA7F422D230A21021EA0F1010000DC1D
:100E30005FB197FBF1FC97FBF1F201FB1C7C1746BD
:100E40000CF1300C08F801CDEEE7A8F101000370B9
:100E50002188090501D5452100E06521A0F101089F
:100E600000F8011C09980FA9A1EB0807FF1D00B1AC
:100E70000120411901EBEA70A1693844081A401EAB
:100E8000A0612078C00602D42046FFF7E6FA099850
:100E900028B1D4E901219047206A401C20622078C3
:100EA000C00622D52046FFF7D8FA1EE0002E04DB4C
:100EB000B34502DD01A8805D00E03020D4E90121C6
:100EC0009047206A401C2062761CAAF101005FEA6C
:100ED000000A0AD100F01CFAC0680168405CD4E93D
:100EE00001219047206A401C2062281EA5F10105BF
:100EF000DCDC07E0D4E9012118F8010B9047206AF7
:100F0000401C2062381EA7F10107F3DC2046FFF7E2
:100F1000BAFA032011B041E62DE9F04F04460D4620
:100F2000D21D22F0070089B0D0E900974846394623
:100F300001F05CFC0246F80F01D02D2307E0206889
:100F4000810701D52B2302E0202101EAC0038DF89F
:100F500020300BB1012000E00020032A824601D09E
:100F6000072A04DB2946204600F0D6F93FE1207825
:100F7000800601D40D2500E0E569C7F30A560D2D62
:100F800049DA00214FEA175B08464FF00000002FB6
:100F900000F4400007DA00EB80004FF4400100EB62
:100FA000D07001EA60008115012901DD4FF0FF31A9
:100FB00000224FEA850CBCF1180F06D31346ACF1A2
:100FC00018004FF08052C24003E04FF4801323FA20
:100FD0000CF30CF10C0CBCF1200F04D3ACF1200C81
:100FE00009FA0CF001E007FA0CF000294FF0004874
:100FF00001DD18B90FE00ED140450CD319EB020901
:101000005F4121B9404502D19F4329EA0209BBEB68
:10101000175F00D0761C2088000502D57B487844F5
:1010200002E07A487844193808AA302302F80A30D6
:10103000037C0AF10101002E0AF1020A53546A46A8
:1010400002DC4FF0300101E04FF031014FF00108B8
:101050008DF8001002D0A6F2FF3603E059EA4701EE
:1010600000D06B4E002D02DC2178090704D54FF02B
:1010700002082E218DF80110C44600210BE0C7F3B1
:1010800003433F01C35C491C6D1E02F8083005296B
:1010900008F1010801DA002DF1DC00210CE000EB81
:1010A0001973491C1B786D1E082902F808304FEA95
:1010B000091908F1010801DA002DF0DC21688B061E
:1010C00002D516E0A8F10108E04505DD02EB0803B2
:1010D00013F8013C302BF5D0B8F1000F09DD02EB1D
:1010E000080313F8013C2E2B03D1090701D4A8F102
:1010F0000108002D05DD3E2102F808106D1E08F1E3
:101100000108407C002E02F8080008F1010804DA0A
:101110002D20764202F8080002E02B2002F8080099
:101120000A214FF47A70864208F101080BDB96FB26
:10113000F0F3303302F8083096FBF0F308F10108C1
:1011400000FB136601E0642E0CDB642096FBF0F3D9
:10115000303302F8083096FBF0F308F1010800FB89
:10116000136601E00A2E06DB96FBF1F0303002F840
:10117000080008F1010896FBF1F001FB1060303027
:1011800002F80800A16908F1010808EB050202EB6A
:101190000A00081AA0612078C00602D42046FFF792
:1011A0005CF9216A08AE01EB0A00206204E0D4E990
:1011B000012116F8010B9047BAF1010AF7D2207805
:1011C000C00602D52046FFF748F96E4609E016F83A
:1011D000010B3E280FD0D4E901219047206A401C22
:1011E0002062B8F10108F2D22046FFF74CF909B0AD
:1011F0000320BDE8F08F206A2844206203E0D4E990
:101200000121302090476D1EEBD3F8E7561F0000F8
:1012100002FCFFFF10B5436913B1AFF3008001E09A
:10122000FFF754F9012010BD127800F124010A7073
:1012300000224A700122EDE711684FF0FF32E9E722
:1012400010B5436913B1AFF3008001E0FFF7D6F9A1
:10125000012010BD128800F1240182840022C28482
:101260000122EDE711684FF0FF32E9E72DE9F04187
:1012700016460C46054600F043F8036893F8010152
:10128000012807D0FF2C12D8185D80B101202C70E6
:10129000BDE8F081D3F807013246214603F2071377
:1012A000C7182846BC46BDE8F041002360474FF010
:1012B000FF30EDE7754600F0EBF8AE4605006946F5
:1012C000534620F00700854618B020B5FFF77DF89B
:1012D000BDE820404FF000064FF000074FF0000837
:1012E0004FF0000BAC46ACE8C009ACE8C009ACE874
:1012F000C009ACE8C00921F007018D467047000025
:1013000010B500F005F8001D10BD00BF4515000028
:1013100000487047200000202DE9F0411F46044698
:1013200003260168072A01F4006004DB08B116A552
:1013300005E016A503E008B115A500E015A521F00C
:1013400010002060A069C01EA0610FB1401EA06106
:101350002046FFF782F84FB1D4E901213846904783
:10136000206A401C2062C01C206206E0206AFAE766
:10137000D4E9012115F8010B9047761EF8D22046DA
:10138000FFF781F8BDE8F0814E414E006E616E00BE
:10139000494E4600696E66002DE9F04781461646C3
:1013A0008AB0354878440DC88DE80D00324878443D
:1013B000801C03AC0DC884E80D0041F69B30084446
:1013C000372190FBF1F290FBF1F5A5F1800501FBCF
:1013D00012041B3C02D56442012000E00020DFF82B
:1013E00098A080460027FA44AAF1BE0A0EE0E00762
:1013F0000AD03246684607EB470101230AEB810118
:1014000001F0BDF88DE8070064107F1C002CEED1C0
:10141000194F7F44AE3F19E0E80715D007EB0410E1
:101420000DF1180A90E80E008AE80E00C068F0423C
:1014300001D1981908903246012306A903A801F0AA
:101440009EF803AB83E807006D10641C002DE3D108
:101450004FF0010332466946B8F1000F03A802D0ED
:1014600001F078F801E001F08AF8C9E90001C9F853
:1014700008200AB0BDE8F087601C000010B50446E3
:10148000AFF300802046BDE81040FEF78ABF0000A1
:10149000004870470000002030B44FF0013C50F885
:1014A000042B51F8043BCCFA52F4D51A20D1FCB9E4
:1014B00050F8042B51F8043BCCFA52F4D51A17D14A
:1014C000B4B950F8042B51F8043BCCFA52F4D51AB5
:1014D0000ED16CB950F8042B51F8043BCCFA52F4FD
:1014E000D51A05D1002CDAD030BC4FF0000070477F
:1014F00029BAB1FA81F111F01801D1F1200084402C
:10150000F2D1CA40CB4012F0FF0213F0FF0330BC0F
:10151000D01A704701491820ABBEFEE72600020032
:10152000704700004EF20811C4F20F01086840F045
:1015300020000860FFE74EF20810C4F20F000068B8
:1015400000F02000202801D0FFE7F4E745F2205109
:10155000C4F2020144F24B30C4F64F40086045F239
:101560002451C4F20201086840F01100086045F2FD
:101570002851C4F20201086820F01100086045F209
:101580002C51C4F20201086820F00F10086045F2E7
:101590000041C4F20201086820F01100086045F221
:1015A0002041C4F20201086820F01100086045F2F1
:1015B0001051C4F20201086840F01100086045F2C1
:1015C0001C51C4F20201086840F01100086045F2A5
:1015D0000441C4F20201086820F01100086045F2DD
:1015E0000841C4F20201086820F01100086045F2C9
:1015F0000C41C4F20201086840F01100086045F295
:101600001C41C4F202011120086045F21041C4F2ED
:101610000201086840F0110008604EF21C41CEF251
:1016200000010868062262F3575008604EF200116C
:10163000CEF20001086840F080400860704700006A
:1016400081B000900098013846F22801C4F20301ED
:10165000086046F20C01C4F20301086840F0010082
:101660000860FFE746F24800C4F20300006808B1D2
:10167000FFE7F7E746F20C01C4F20301086820F027
:101680000100086001B0704780B582B000900099F9
:101690008868096901F069FA58B9FFE70099886814
:1016A000C96801F062FA20B9FFE700208DF8070051
:1016B00029E00099C868096901F057FA58B9FFE7AD
:1016C00000988168C06801F050FA20B9FFE7012056
:1016D0008DF8070017E000988168006901F045FA6D
:1016E00058B9FFE70098C168006901F03EFA20B9D7
:1016F000FFE702208DF8070005E0FFE7FFE7032082
:101700008DF80700FFE79DF8070002B080BD0000DC
:101710004EF20411C4F20F01086840F480500860D2
:101720004EF20811C4F20F01086840F00200086090
:10173000FFE74EF20810C4F20F00006800F002004C
:10174000022801D0FFE7F4E745F21C51C4F2000182
:10175000086840F00C00086045F22041C4F2000126
:10176000086840F00C00086045F22C51C4F20001FA
:10177000086820F47F400A68104340F44C50086029
:1017800045F20C51C4F20001086840F008000860FE
:1017900045F22851C4F20001086800F00C0008600E
:1017A0002021C4F20201086840F0100008600C21FA
:1017B000C4F20201072008607047000081B08DF874
:1017C00002008DF80110FFE70420C4F20200006857
:1017D000C00708B1FFE7F7E79DF802004000C0B27C
:1017E0000021C4F2020108609DF801000821C4F242
:1017F000020108600421C4F2020103200860FFE72F
:101800000420C4F202000068C00708B1FFE7F7E750
:101810009DF80200400001300021C4F2020108607E
:101820000421C4F2020107200860FFE70420C4F28B
:10183000020000684006002801D5FFE7F6E7042013
:10184000C4F20200006800F002008DF800009DF96B
:10185000000028B1FFE79DF800008DF8030006E0C6
:101860000820C4F2020000688DF80300FFE79DF82D
:10187000030001B07047000082B08DF806008DF8BB
:1018800005108DF80420FFE70420C4F20200006870
:10189000C00708B1FFE7F7E79DF806004000C0B2B7
:1018A0000021C4F202010860086820F0010008600D
:1018B0009DF805000821C4F2020108600421C4F269
:1018C000020103200860FFE70420C4F20200006860
:1018D000C00708B1FFE7F7E79DF804000821C4F24C
:1018E000020108600421C4F2020105200860FFE73C
:1018F0000420C4F202000068C00708B1FFE7F7E760
:10190000FFE70420C4F2020000684006002801D569
:10191000FFE7F6E70420C4F20200006800F00200CE
:101920008DF803009DF9030028B1FFE79DF803003F
:101930008DF8070003E000208DF80700FFE79DF811
:10194000070002B0704700004EF20811C4F20F0108
:10195000086840F020000860FFE74EF20810C4F26B
:101960000F00006800F02000202801D0FFE7F4E716
:1019700045F22451C4F20201086840F00E000860EC
:1019800045F22851C4F20201086820F00E000860F8
:1019900045F22C51C4F2020108684FF6F0729043F0
:1019A000086045F20041C4F20201086840F00E00F0
:1019B000086045F22041C4F20201086820F00E00E0
:1019C000086045F21051C4F20201086820F00E00D0
:1019D000086045F21C51C4F20201086840F00E0094
:1019E0000860704780B582B08DF807009DF8070049
:1019F00001460091062817D80099DFE801F0040598
:101A000006090C0F120010E00FE000F0CBF90CE01B
:101A100000F0D0F909E000F0CBF906E000F0C0F9E1
:101A200003E000F087F900E0FFE702B080BD0000AE
:101A300080B582B0292000909A21FFF7BFFE0146B1
:101A400000988DF807109B21FFF7B8FE8DF806006F
:101A50009DF806109DF8070040EA0120ADF804004B
:101A60000320FFF7EDFDBDF8040002B080BD0000CB
:101A700080B582B0292000909421FFF79FFE014697
:101A800000988DF807109521FFF798FE8DF8060055
:101A90009DF806109DF8070040EA0120ADF804000B
:101AA0000320FFF7CDFDBDF8040002B080BD0000AB
:101AB00080B582B0292000909821FFF77FFE014673
:101AC00000988DF807109921FFF778FE8DF8060031
:101AD0009DF806109DF8070040EA0120ADF80400CB
:101AE0000320FFF7ADFDBDF8040002B080BD00008B
:101AF00080B582B0292000909621FFF75FFE014655
:101B000000988DF807109721FFF758FE8DF8060012
:101B10009DF806109DF8070040EA0120ADF804008A
:101B20000320FFF78DFDBDF8040002B080BD00006A
:101B300080B58AB009900998C08840B9FFE7099933
:101B4000002008610999C8600999886050E00998E7
:101B50000290008801F01AF9014602980191C088AC
:101B600001F014F90146019801F01AF800F0B6FFEF
:101B7000002206924EF20003C4F26F03079300F0B6
:101B8000AFFE00F07BFE02998860099804904088BF
:101B900001F0FCF8014604980391C08801F0F6F8C2
:101BA0000146039800F0FCFF00F098FF069A079B9F
:101BB00000F096FE00F062FE0499C8600998089053
:101BC000808801F0E3F8014608980591C08801F08B
:101BD000DDF80146059800F0E3FF00F07FFF069A6C
:101BE000079B00F07DFE00F049FE08990861FFE7C1
:101BF0000AB080BD80B588B029209221FFF7DEFDB4
:101C00008DF81F009DF81F2043F22711C0F200013C
:101C10000DF10B000190FEF7E3FB019800F0BCF919
:101C20009DF81F004D2807D0FFE743F27300C0F274
:101C3000000000F0B1F97AE043F25600C0F2000073
:101C400000F0AAF929208121FF22FFF715FE8DF867
:101C50001F009DF81F0038B1FFE743F21310C0F2D8
:101C6000000000F099F906E043F2DF00C0F2000046
:101C700000F092F9FFE70320FFF7E2FC29208F2113
:101C80000022FFF7F9FD8DF81F009DF81F0038B105
:101C9000FFE743F21310C0F2000000F07DF906E008
:101CA00043F2FF00C0F2000000F076F9FFE72920C0
:101CB00080210122FFF7E0FD8DF81F009DF81F0035
:101CC00038B1FFE743F21310C0F2000000F064F9EE
:101CD00006E043F2CB00C0F2000000F05DF9FFE740
:101CE00003200090FFF7ACFC009A29208021FFF729
:101CF000C3FD8DF81F009DF81F0038B1FFE743F2C8
:101D00001310C0F2000000F047F906E043F2B800FB
:101D1000C0F2000000F040F9FFE70320FFF790FC5D
:101D200043F29400C0F2000000F036F9FFE708B07B
:101D300080BD000080B582B045F23801C4F20201D6
:101D40000220086040F29400C2F20000019043F2C9
:101D50002201C0F20001FEF759FB40F26000C2F21E
:101D60000000006800F0BAFE02460B4640F26C002C
:101D7000C2F2000043F24101C0F20001FEF730FB65
:101D8000019A40F28000C2F2000043F24D01C0F21D
:101D90000001FEF725FB1420FFF752FC02B080BDC6
:101DA0007047000080B53220FFF74AFC80BD00007C
:101DB0007047000080B5B2B0FFF79AFEADF81C0086
:101DC000FFF736FEADF82000FFF772FEADF81E00FB
:101DD000FFF74EFEADF8220007A80590FFF7A8FE1A
:101DE0000598FFF751FC01460691032820D8069973
:101DF000DFE801F00209101745F23801C4F20201D0
:101E00000220086014E045F23801C4F20201082003
:101E100008600DE045F23801C4F2020104200860B8
:101E200006E045F23801C4F2020100200860FFE735
:101E3000099800F053FE02460B4643F23801C0F207
:101E400000010DF196000190FEF7CAFA0B9800F020
:101E500045FE02460B4643F22601C0F200010DF199
:101E600032000290FEF7BCFA0A9800F037FE0246F4
:101E70000B4643F22F01C0F2000119A80390FEF7B0
:101E8000AFFA019800F088F843F22000C0F2000099
:101E9000049000F081F8029800F07EF8049800F0B9
:101EA0007BF8039800F078F8049800F075F800F0DB
:101EB00053F80A20FFF7C4FB32B080BD4EF2041184
:101EC000C4F20F01086840F0010008604EF20811EA
:101ED000C4F20F01086840F0010008604CF23001C4
:101EE000C4F20001002008604CF22400C4F200009B
:101EF000112202604CF22803C4F20003172018607C
:101F00004CF22C03C4F2000370201860086840F201
:101F100001331843086044F22041C4F2000108680C
:101F200040F00300086044F21C51C4F2000108684C
:101F300040F00300086044F22C51C4F2000108682C
:101F400062F30700086044F22851C4F200010868F7
:101F500020F003000860704780B50D2000F004F801
:101F60000A2000F001F880BD81B08DF80300FFE782
:101F70004CF21800C4F2000000688006002801D569
:101F8000FFE7F5E79DF903004CF20001C4F2000100
:101F9000086001B07047000080B582B00190FFE793
:101FA0000198007848B1FFE7019890F90000FFF729
:101FB000DBFF019801300190F2E702B080BD000024
:101FC0004EF25C61C4F20F01086840F00100086045
:101FD000FFE74EF25C60C4F20F000068C00708B96A
:101FE000FFE7F6E746F20C01C4F20301086820F0AF
:101FF0000100086046F20001C4F20301086840F0E5
:102000000400086046F20401C4F20301086840F0CD
:102010000200086046F23801C4F2030143F67F6013
:102020000860704780B582B000200190FFF746FF3E
:10203000FFF78AFCFFF776FAFFF7C2FFFFF768FBAE
:10204000FFF7D8FDFFE70020FFF7CCFC0120FFF7EA
:10205000C9FC0320FFF7C6FCF5E75FEA400C08BFA8
:1020600091F0000F4FEA8C234FEAC12243EA51510D
:102070004FEA1C5018BF00F5F0404FEA300018BF7F
:1020800041F000415FEA6C5C00F02980BCF1FF3F49
:1020900008BF40F080407047130C06BF12044FF099
:1020A000100C4FF0000C130E04BF12020CF1080CC0
:1020B000130F04BF12010CF1040C930F04BF920024
:1020C0000CF1020CD30F04BF52000CF1010C1146AD
:1020D0004FF00002A0F11F00A0EB0C00704711F0C0
:1020E000004F08BF704731F000413FF4D5AF0B0CF3
:1020F00006BF09044FF0100C4FF0000C0B0E04BF8C
:1021000009020CF1080C0B0F04BF09010CF1040CBF
:102110008B0F04BF89000CF1020CCB0F04BF4900E8
:102120000CF1010CCCF1200322FA03F341EA030184
:1021300002FA0CF2A0EB0C0000F101007047000065
:1021400023F07F4720F07F4C80EA030000F000403E
:10215000ACEB070303F57C5303F1FF032DE9804942
:1021600009B44FEA144324EA03484FEA154B25EA21
:102170000B4E0FF2042606EB13273E7803FB06678F
:10218000C7F5000707FB06F64FEAD64606F102063A
:102190004FEA543707FB066CCCF1005C4FEA1C4752
:1021A0002CEA074C0CFB06F507FB06F404EB15467E
:1021B0004FEA961649085FEA320234BF00204FF01A
:1021C00000404FEAD13706FB07FC4FEA1C4C0CFBE2
:1021D0000BF7D21B03FB0CF761EB07010CFB0EF7AF
:1021E000B0EB074072EB17420CFB08F734BFA2EBD1
:1021F0000742B2EB074261EB17414FEA0C444FEA4A
:10220000910706FB07FC4FEA1C4C0CFB0BF7B0EBED
:10221000C74072EB573203FB0CF734BFA2EBC74247
:10222000B2EBC74261EB57310CFB0EF7B0EBC700C6
:1022300072EB57720CFB08F734BFA2EBC702B2EB8C
:10224000C70261EB57714FEA816141EA92114FEA8F
:10225000826242EA90124FEA806004EBCC04039F52
:102260004FEAD13706FB07FC4FEA1C4C0CFB0BF77F
:10227000D21B03FB0CF761EB07010CFB0EF7B0EB75
:10228000074072EB17420CFB08F734BFA2EB074282
:10229000B2EB074261EB17414FEA8C5504EB9C24EB
:1022A0004FEA910706FB07FC4FEA1C4C0CFB0BF7AF
:1022B000B0EBC74072EB573203FB0CF734BFA2EB15
:1022C000C742B2EBC74261EB57310CFB0EF7B0EBE4
:1022D000C70072EB57720CFB08F734BFA2EBC702C2
:1022E000B2EBC70261EB57714FEA816141EA92118B
:1022F0004FEA826242EA90124FEA806015EB4C2569
:1023000044F100044FEAD13706FB07FC4FEA1C4CAE
:102310000CFB0BF7D21B03FB0CF761EB07010CFB6B
:102320000EF7B0EB074072EB17420CFB08F734BF17
:10233000A2EB0742B2EB074261EB17414FEA813152
:1023400041EA92414FEA823242EA90424FEA8030BB
:102350004FEA0C7615EB1C1544F1000448EA0343E0
:102360004EEA0B484FF0000EB2EB080C71EB03077E
:1023700024BF624639464EEB0E0E4FF0000B00189C
:10238000524149414BEB0B0BB2EB080C71EB0307CD
:102390007BF1000B24BF624639464EEB0E0E4FF028
:1023A000000B0018524149414BEB0B0BB2EB080CF0
:1023B00071EB03077BF1000B24BF624639464EEBFD
:1023C0000E0E51EA020718BF46F0010616EB0E7614
:1023D00055F1000254F1000103D5BDE88901BDE8C3
:1023E0000088BDE88901BDE80048B619524141EBBB
:1023F0000101A3F10103704780807F7E7D7C7B7AA1
:102400007978777676757473727171706F6E6E6DA0
:102410006C6C6B6A6A696868676666656464636346
:1024200062616160605F5F5E5E5D5D5C5C5B5B5ACC
:102430005A59595858575756565555555454535339
:1024400052525251515050504F4F4F4E4E4D4D4D94
:102450004C4C4C4B4B4B4A4A4A49494948484847DF
:10246000474747464646454545444444444343431D
:1024700043424242424141419C46002B30D47700C6
:102480002BD04FEA37071CB503B44FF010004FF0C4
:102490001001BAF1000F06D0BCF1000FDCBF40F014
:1024A000080040F008014FF000000FBCBDE81040EC
:1024B0000BF1010BBBF1010F08BF5FEA170722BF49
:1024C00012F1010211F101014FF0004143F100034B
:1024D00000F0004043EA00007047F9D35708D0E706
:1024E00046EA06464FEA164613F1400F1FDD13F188
:1024F000200FDFBF16430A46002120335B42BED0C7
:10250000C3F1200746EA06464FEA164602FA07F7E5
:1025100046EA070622FA03F2C3F1200701FA07F799
:1025200042EA070221FA03F14FF00003A7E746EA67
:10253000020646EA06464FEA164646EA0106BCBFD0
:1025400046EA0646360C4FF000034FF000024FF00B
:10255000000194E72DE9804C70B49A46934691E8C7
:10256000380007C831EA400C48BF34EA430C03D5B1
:10257000FFF7E6FDFFF780FFF0BCBDE8008C2DE91A
:10258000804C70B49A46934691E8380007C810F022
:10259000804F08BF13F0804F03D100F005F8FFF71C
:1025A0006BFFF0BCBDE8008C20F07F4723F07F4C30
:1025B00080EA030000F0004007EB0C03A3F57C5316
:1025C000A3F1FE0392F0000F00F0B38095F0000F2E
:1025D00000F077802DE901494FEA114021EA0048D7
:1025E0004FEA144624EA064700FB06FC08FB06F601
:1025F00007FB08F818EB06484CEB164C00FB07F7F6
:1026000018EB07484CEB17404FEA124B22EA0B4EEF
:102610004FEA154625EA06470BFB06FC0EFB06F6BD
:1026200007FB0EFE1EEB064E4CEB164C0BFB07F7A2
:102630001EEB074E4CEB174B18EB0B0840F100005C
:1026400018EB0E0B58EB000840F100008F1A4FF00A
:1026500000014FF000063CBFC943661B14BFB5EB39
:10266000040C00213CBFC943F61B4FEA174427EA7C
:1026700004454FEA1C472CEA074C04FB076205FBA4
:1026800007F70CFB05F616EB074642EB174204FB77
:102690000CFC16EB0C4642EB1C421BEB060658EBFF
:1026A000020241414EEA8E0E46EA9E0601D5BDE881
:1026B0000189B619524141EB0101A3F10103BDE8C3
:1026C00001894FEA144524EA05464FEA114721EAF9
:1026D000074C05FB07F406FB07F70CFB06F111EBB3
:1026E000074144EB174405FB0CFC11EB0C4144EB98
:1026F0001C444FEA124722EA074C05FB07F206FB8F
:1027000007F70CFB06F616EB074642EB174205FBF4
:102710000CFC16EB0C4642EB1C456A1854F1000108
:1027200048BF7047B619524141EB0101A3F10103C3
:10273000704795F0000F37D04FEA114221EA024668
:102740004FEA144724EA074C02FB07F106FB07F7A0
:102750000CFB06F414EB074441EB174102FB0CFCA5
:1027600014EB0C4441EB1C414FEA154725EA074C9A
:1027700002FB07F506FB07F70CFB06F616EB074610
:1027800045EB174502FB0CFC16EB0C4645EB1C42D7
:10279000121951F1000148BF7047B619524141EB7F
:1027A0000101A3F1010370474FEA144524EA0546ED
:1027B0004FEA114721EA074C05FB07F106FB07F733
:1027C0000CFB06F212EB074241EB174105FB0CFC38
:1027D00012EB0C4251EB1C414FF0000648BF704712
:1027E000921841EB0101A3F101037047490050EA3F
:1027F000C12018BF04204A0D18BF40F0010040F26C
:10280000FF72B2EB515F08BF40F00200012808BF21
:102810000520704730380A2801D201207047002077
:102820007047000010B500290AD00878002807D0AA
:1028300005487844FEF730FE002801D0002010BD86
:102840000248784410BD00000E090000060900008F
:1028500010B500290AD00878002807D00548784428
:10286000FEF71AFE002801D0002010BD024878446F
:1028700010BD0000FE080000F608000021F0004234
:1028800001F00043A2F16052B2F5801F28BFD2F1DF
:102890007F6C0BD95FEA001C43EAC20242EB507026
:1028A00018BF704728BF20F001007047B2F5801FA5
:1028B000BCBF184670474FEA410C1CF5001F02D2FE
:1028C000084600F025BB70B500F0B4F800000089A0
:1028D000FFF7F6BF4FF00040A0F580007047000002
:1028E00070B5DFF848C11CEA111E1EBF1CEA1315A3
:1028F0009EEA0C0F95EA0C0F00F06F8081EA03044A
:102900004EEAD47EAE4421EA4C1123EA4C1341F442
:10291000801143F48013AEF17F7EA1FB024CA0FB3B
:102920000365361955EB0C05A1FB034C4CF1000374
:10293000A0FB021C16EB0C06654153F10003094293
:1029400018BF46F0010613F4007F0BD14FEA0331A4
:102950004FEA053041EA155140EA165034036FF052
:1029600003020AE04FEAC3214FEAC52041EA55516C
:1029700040EA5650F4026FF0020202EB2E4201EBE5
:10298000025585EACE710AD05FEA440C18BF24F0E4
:10299000004450F1000041F1000120EAD47040F2FF
:1029A000FE7C624500D270BDA84214BF4FF0804447
:1029B0004FF04044002E08BF0024BEF1806FA8BF36
:1029C000A1F1C041BDE8704080F2828001F1C041B8
:1029D00001F000414FF0000070470CEA13159EEA29
:1029E0000C0F18BF95EA0C0F06D081EA030E4FF0CA
:1029F00000000EF0004170BD00F01CF88900013E9F
:102A000000F007B800F009B84FEA430C5FEA5C5CDD
:102A100008D081EA030100F05BB84FEA410C5FEA9D
:102A20005C5CF6D102494FF0000070470000FF07E0
:102A30000000F87F0EF1020E2EF0030E5EF8046B1C
:102A4000364205D4012A43EB030515F5001F12D8C1
:102A5000012841EB010C1CF5001F0CD80ED14FEAE8
:102A6000D17C0CEB4C0C0CF1020C15F5001F08BFCF
:102A70004CEBD37C04E04FF0080C01E04FEAD37C30
:102A80000CEB4C0526FA05F606F00706B6F1040C29
:102A900006D20EEB860CBDE870404CF0010C60478E
:102AA000DFE80CF0090B02024FF00041A1F5002114
:102AB0004FF0000070BD19461046012851EB01048B
:102AC00018BFD4F5001484BF002001F0004170BD90
:102AD0000808A0F500114FEA3101704743004FEAA2
:102AE000D30C4FEA3C0C43401FBF40070CF1605130
:102AF00013F0FE4F70471CF0006F03D10CF0004143
:102B0000002070470CF0004343EA507040EACC00CC
:102B100010B500F0B7F900BF000000924FEA0001C5
:102B2000FFF7D6BF4FF00041A1F500214FF00000A4
:102B3000704710B500F0F6F80CBF0120002010BD62
:102B400010B500F0EFF814BF0120002010BD10B543
:102B500000F030F98CBF0120002010BD10B500F04E
:102B600029F92CBF0120002010BD10B500F056F946
:102B700094BF0120002010BD10B500F04FF934BF04
:102B80000120002010BD401058BFC0F14040491046
:102B900058BFC1F140418142EFF30080704700000F
:102BA0004FF47F0C1CEAD0121EBF1CEAD11392EA2C
:102BB0000C0F93EA0C0F00F0858090EA010F48BFDC
:102BC00042F4807240F4000C41F400002CF07F418C
:102BD00020F07F4000B5A2EB030281420FF2081CF7
:102BE000ACEB504E9EF800E0C0F100004FEA4E0EF4
:102BF00000FB0EFC38BF49004FEA2C1C0CFB0EF307
:102C00004FEACE1E0EEB635E4FEA112C0EFB0CFC5E
:102C10004FEAC1214FEA1C5300FB031102F5FA02EF
:102C20004FEA112C0EFB0CFC4FEA01314FEADC4C51
:102C300000FB0C1142EB2242C14228BF09184CEBA9
:102C400003335DF804EB10EB410143EBC250B2F5E6
:102C50007C0F38BF704729D512F0F00F1CBF00F170
:102C6000C04000F0004070470081828384858687E1
:102C700088898B8C8D8E8F919293959697999A9C3B
:102C80009D9FA0A2A3A5A7A8AAACAEB0B2B3B5B7AA
:102C9000B9BCBEC0C2C5C7C9CCCED1D4D7D9DCDF80
:102CA000E2E6E9ECF0F3F7FAFE0000004FEA400C30
:102CB0000CF1807CBCF17E4F28BF7047B0F1C04062
:102CC00000F026B90CEAD11390EA010F48BF42F494
:102CD0008072624538BF634507D213F47F0F16D068
:102CE00080EA010000F00040704710B500F0CAF81B
:102CF000097EFC3E00F005B880EA010000F00040CB
:102D0000704780EA010000F0004000F001B912F4C1
:102D10007F0F04BF0248704780EA010000F0F8B856
:102D20000000C07F50EA010C00F113801CF5000F79
:102D300058BFBCF5000F01D48842704707D710F583
:102D4000000F58BF11F5000F15D488427047894213
:102D500070471CF5000F04D5BCF5000FF7D5814274
:102D600070474FF0807C1CEB400F38BF1CEB410FCD
:102D700001D28142704710B500F084F892244900D6
:102D80004FF000504FF08051FFF7FDBEB0FA80F3D6
:102D900010FA03F2C3F19D030AD0D90501EB12200A
:102DA000530638BF704700F1010008BF20F0010052
:102DB0007047000050EA010C00F113801CF5000F71
:102DC00058BFBCF5000F01D48842704707D710F5F3
:102DD000000F58BF11F5000F15D488427047894283
:102DE00070471CF5000F04D5BCF5000FF7D58142E4
:102DF00070474FF0807C1CEB400F38BF1CEB410F3D
:102E000001D28142704710B500F03CF8922449008D
:102E10004FF080504FF00051FFF7B5BE50EA010C63
:102E200000F113801CF5000F58BFBCF5000F01D452
:102E30008842704707D710F5000F58BF11F5000FF3
:102E400015D488427047894270471CF5000F04D59D
:102E5000BCF5000FF7D5814270474FF0807C1CEB2A
:102E6000400F38BF1CEB410F01D28142704710B5B3
:102E700000F008F8922449004FF000504FF08051C4
:102E8000FFF781BE0EF1020E2EF0030E5EF8044B2A
:102E9000244204D44FEA4102B2F17F4F11D84FEAE5
:102EA0004003B3F17F4F0CD80ED14FEAD07C0CEB2E
:102EB0004C0C0CF1020CB2F17F4F08BF4CEBD17CF3
:102EC00004E04FF0080C01E04FEAD17C0CEB4C031E
:102ED00024FA03F404F00704B4F1040C06D20EEB58
:102EE000840CBDE810404CF0010C6047DFE80CF0AA
:102EF000070802024FF00040A0F5800010BD084610
:102F0000420018BFD2F1807288BF00F0004010BDAF
:102F1000FF2141EAD050C0057047FDF7C7BEFDF75D
:102F2000FBBF000000000000000000003031323321
:102F300034353637383941424344454640305800ED
:102F4000303132333435363738396162636465661F
:102F5000403078000400000800000000000000027B
:102F600000010000103031323334353637383961E2
:102F700062636465667870003031323334353637D9
:102F80003839414243444546585000000240000051
:102F9000000000A00000000005400000000000C884
:102FA000000000000C4000000000409C00000000F9
:102FB000194000000020BCBE0000000034400000AA
:102FC000BFC91B8E00000004B5400000504BCFD09D
:102FD0006607E2CF010000006C4100003E8251AA6A
:102FE000DFEEA73401000000D9420000DCB5A0E20A
:102FF0003A301F97FFFFFFFFB4450000FD25A0C832
:10300000E9A3C14FFFFFFFFFFF3F0000000000806A
:1030100000000000FF3F00000000008000000000F2
:10302000200052454400423A2025302E32660047A7
:103030003A2025302E326600523A2025302E326654
:1030400000416E676C653A25302E326600436F6C26
:103050006F723A2573005443533334373237206844
:103060006173206265656E20446574656374656490
:103070000D0A0054435333343732372068617320CC
:103080006E6F74206265656E204465746563746557
:10309000640D0A00544353333437323720436F6C86
:1030A0006F722053656E736F7220496E6974696127
:1030B0006C697A65640D0A005443533334373237F0
:1030C0002052474243204F6E0D0A0054435333347D
:1030D00037323720506F776572204F6E0D0A0054DB
:1030E0004353333437323720496E746567726174E5
:1030F000696F6E2054696D65205365740D0A005424
:1031000043533334373237204761696E2053657437
:103110000D0A004572726F72206F6E205472616EDC
:10312000736D69740D0A0049443A2025780D0A0030
:103130006C32000000000020A0040000C00200006B
:103140001C00000043000000F8FFFFFF0C0000001F
:103150000E0000000F0000002E0000001001000013
:1031600043000000F8FFFFFF004040404040404067
:10317000404041414141414040404040404040404A
:1031800040404040404040404005020202020202EE
:10319000020202020202020202202020202020203D
:1031A0002020200202020202020290909090909051
:1031B000101010101010101010101010101010100F
:1031C0001010101002020202020288888888888883
:1031D000080808080808080808080808080808086F
:1031E0000808080802020202400000000000000077
:1031F00000000000000000000000000000000000CF
:1032000000000000000000000000000000000000BE
:1032100000000000000000000000000000000000AE
:10322000000000000000000000000000000000009E
:10323000000000000000000000000000000000008E
:10324000000000000000000000000000000000007E
:10325000000000000000000000000000000000006E
:0C32600000000000000000000000000062
:040000050000026D88
:00000001FF
